{
  "_format": "hh-sol-artifact-1",
  "contractName": "NFT_Minting",
  "sourceName": "contracts/Lock.sol",
  "abi": [
    {
      "inputs": [],
      "stateMutability": "nonpayable",
      "type": "constructor"
    },
    {
      "inputs": [
        {
          "internalType": "address",
          "name": "sender",
          "type": "address"
        },
        {
          "internalType": "uint256",
          "name": "tokenId",
          "type": "uint256"
        },
        {
          "internalType": "address",
          "name": "owner",
          "type": "address"
        }
      ],
      "name": "ERC721IncorrectOwner",
      "type": "error"
    },
    {
      "inputs": [
        {
          "internalType": "address",
          "name": "operator",
          "type": "address"
        },
        {
          "internalType": "uint256",
          "name": "tokenId",
          "type": "uint256"
        }
      ],
      "name": "ERC721InsufficientApproval",
      "type": "error"
    },
    {
      "inputs": [
        {
          "internalType": "address",
          "name": "approver",
          "type": "address"
        }
      ],
      "name": "ERC721InvalidApprover",
      "type": "error"
    },
    {
      "inputs": [
        {
          "internalType": "address",
          "name": "operator",
          "type": "address"
        }
      ],
      "name": "ERC721InvalidOperator",
      "type": "error"
    },
    {
      "inputs": [
        {
          "internalType": "address",
          "name": "owner",
          "type": "address"
        }
      ],
      "name": "ERC721InvalidOwner",
      "type": "error"
    },
    {
      "inputs": [
        {
          "internalType": "address",
          "name": "receiver",
          "type": "address"
        }
      ],
      "name": "ERC721InvalidReceiver",
      "type": "error"
    },
    {
      "inputs": [
        {
          "internalType": "address",
          "name": "sender",
          "type": "address"
        }
      ],
      "name": "ERC721InvalidSender",
      "type": "error"
    },
    {
      "inputs": [
        {
          "internalType": "uint256",
          "name": "tokenId",
          "type": "uint256"
        }
      ],
      "name": "ERC721NonexistentToken",
      "type": "error"
    },
    {
      "inputs": [
        {
          "internalType": "address",
          "name": "owner",
          "type": "address"
        }
      ],
      "name": "OwnableInvalidOwner",
      "type": "error"
    },
    {
      "inputs": [
        {
          "internalType": "address",
          "name": "account",
          "type": "address"
        }
      ],
      "name": "OwnableUnauthorizedAccount",
      "type": "error"
    },
    {
      "anonymous": false,
      "inputs": [
        {
          "indexed": true,
          "internalType": "address",
          "name": "owner",
          "type": "address"
        },
        {
          "indexed": true,
          "internalType": "address",
          "name": "approved",
          "type": "address"
        },
        {
          "indexed": true,
          "internalType": "uint256",
          "name": "tokenId",
          "type": "uint256"
        }
      ],
      "name": "Approval",
      "type": "event"
    },
    {
      "anonymous": false,
      "inputs": [
        {
          "indexed": true,
          "internalType": "address",
          "name": "owner",
          "type": "address"
        },
        {
          "indexed": true,
          "internalType": "address",
          "name": "operator",
          "type": "address"
        },
        {
          "indexed": false,
          "internalType": "bool",
          "name": "approved",
          "type": "bool"
        }
      ],
      "name": "ApprovalForAll",
      "type": "event"
    },
    {
      "anonymous": false,
      "inputs": [
        {
          "indexed": false,
          "internalType": "uint256",
          "name": "_fromTokenId",
          "type": "uint256"
        },
        {
          "indexed": false,
          "internalType": "uint256",
          "name": "_toTokenId",
          "type": "uint256"
        }
      ],
      "name": "BatchMetadataUpdate",
      "type": "event"
    },
    {
      "anonymous": false,
      "inputs": [
        {
          "indexed": false,
          "internalType": "uint256",
          "name": "_tokenId",
          "type": "uint256"
        }
      ],
      "name": "MetadataUpdate",
      "type": "event"
    },
    {
      "anonymous": false,
      "inputs": [
        {
          "indexed": false,
          "internalType": "uint256",
          "name": "tokenId",
          "type": "uint256"
        },
        {
          "indexed": false,
          "internalType": "address",
          "name": "index",
          "type": "address"
        }
      ],
      "name": "NFT_Minted",
      "type": "event"
    },
    {
      "anonymous": false,
      "inputs": [
        {
          "indexed": false,
          "internalType": "uint256",
          "name": "tokenId",
          "type": "uint256"
        },
        {
          "indexed": false,
          "internalType": "address",
          "name": "index",
          "type": "address"
        }
      ],
      "name": "NFT_Transfered",
      "type": "event"
    },
    {
      "anonymous": false,
      "inputs": [
        {
          "indexed": true,
          "internalType": "address",
          "name": "previousOwner",
          "type": "address"
        },
        {
          "indexed": true,
          "internalType": "address",
          "name": "newOwner",
          "type": "address"
        }
      ],
      "name": "OwnershipTransferred",
      "type": "event"
    },
    {
      "anonymous": false,
      "inputs": [
        {
          "indexed": true,
          "internalType": "address",
          "name": "from",
          "type": "address"
        },
        {
          "indexed": true,
          "internalType": "address",
          "name": "to",
          "type": "address"
        },
        {
          "indexed": true,
          "internalType": "uint256",
          "name": "tokenId",
          "type": "uint256"
        }
      ],
      "name": "Transfer",
      "type": "event"
    },
    {
      "anonymous": false,
      "inputs": [
        {
          "indexed": false,
          "internalType": "uint256[]",
          "name": "nfts",
          "type": "uint256[]"
        }
      ],
      "name": "User_NFTs",
      "type": "event"
    },
    {
      "stateMutability": "payable",
      "type": "fallback"
    },
    {
      "inputs": [
        {
          "internalType": "uint256",
          "name": "",
          "type": "uint256"
        }
      ],
      "name": "NFTOwner",
      "outputs": [
        {
          "internalType": "address",
          "name": "",
          "type": "address"
        }
      ],
      "stateMutability": "view",
      "type": "function"
    },
    {
      "inputs": [
        {
          "internalType": "uint256",
          "name": "_tokenID",
          "type": "uint256"
        },
        {
          "internalType": "uint256",
          "name": "price",
          "type": "uint256"
        }
      ],
      "name": "NFT_transfer",
      "outputs": [],
      "stateMutability": "payable",
      "type": "function"
    },
    {
      "inputs": [
        {
          "internalType": "address",
          "name": "to",
          "type": "address"
        },
        {
          "internalType": "uint256",
          "name": "tokenId",
          "type": "uint256"
        }
      ],
      "name": "approve",
      "outputs": [],
      "stateMutability": "nonpayable",
      "type": "function"
    },
    {
      "inputs": [
        {
          "internalType": "address",
          "name": "owner",
          "type": "address"
        }
      ],
      "name": "balanceOf",
      "outputs": [
        {
          "internalType": "uint256",
          "name": "",
          "type": "uint256"
        }
      ],
      "stateMutability": "view",
      "type": "function"
    },
    {
      "inputs": [
        {
          "internalType": "uint256",
          "name": "tokenId",
          "type": "uint256"
        }
      ],
      "name": "getApproved",
      "outputs": [
        {
          "internalType": "address",
          "name": "",
          "type": "address"
        }
      ],
      "stateMutability": "view",
      "type": "function"
    },
    {
      "inputs": [
        {
          "internalType": "address",
          "name": "to",
          "type": "address"
        }
      ],
      "name": "getUserNFTs",
      "outputs": [
        {
          "internalType": "uint256[]",
          "name": "",
          "type": "uint256[]"
        }
      ],
      "stateMutability": "view",
      "type": "function"
    },
    {
      "inputs": [
        {
          "internalType": "address",
          "name": "owner",
          "type": "address"
        },
        {
          "internalType": "address",
          "name": "operator",
          "type": "address"
        }
      ],
      "name": "isApprovedForAll",
      "outputs": [
        {
          "internalType": "bool",
          "name": "",
          "type": "bool"
        }
      ],
      "stateMutability": "view",
      "type": "function"
    },
    {
      "inputs": [
        {
          "internalType": "string",
          "name": "tokenURI",
          "type": "string"
        }
      ],
      "name": "mintNFT",
      "outputs": [
        {
          "internalType": "uint256",
          "name": "",
          "type": "uint256"
        }
      ],
      "stateMutability": "nonpayable",
      "type": "function"
    },
    {
      "inputs": [],
      "name": "name",
      "outputs": [
        {
          "internalType": "string",
          "name": "",
          "type": "string"
        }
      ],
      "stateMutability": "view",
      "type": "function"
    },
    {
      "inputs": [],
      "name": "owner",
      "outputs": [
        {
          "internalType": "address",
          "name": "",
          "type": "address"
        }
      ],
      "stateMutability": "view",
      "type": "function"
    },
    {
      "inputs": [
        {
          "internalType": "uint256",
          "name": "tokenId",
          "type": "uint256"
        }
      ],
      "name": "ownerOf",
      "outputs": [
        {
          "internalType": "address",
          "name": "",
          "type": "address"
        }
      ],
      "stateMutability": "view",
      "type": "function"
    },
    {
      "inputs": [],
      "name": "renounceOwnership",
      "outputs": [],
      "stateMutability": "nonpayable",
      "type": "function"
    },
    {
      "inputs": [
        {
          "internalType": "address",
          "name": "from",
          "type": "address"
        },
        {
          "internalType": "address",
          "name": "to",
          "type": "address"
        },
        {
          "internalType": "uint256",
          "name": "tokenId",
          "type": "uint256"
        }
      ],
      "name": "safeTransferFrom",
      "outputs": [],
      "stateMutability": "nonpayable",
      "type": "function"
    },
    {
      "inputs": [
        {
          "internalType": "address",
          "name": "from",
          "type": "address"
        },
        {
          "internalType": "address",
          "name": "to",
          "type": "address"
        },
        {
          "internalType": "uint256",
          "name": "tokenId",
          "type": "uint256"
        },
        {
          "internalType": "bytes",
          "name": "data",
          "type": "bytes"
        }
      ],
      "name": "safeTransferFrom",
      "outputs": [],
      "stateMutability": "nonpayable",
      "type": "function"
    },
    {
      "inputs": [
        {
          "internalType": "address",
          "name": "operator",
          "type": "address"
        },
        {
          "internalType": "bool",
          "name": "approved",
          "type": "bool"
        }
      ],
      "name": "setApprovalForAll",
      "outputs": [],
      "stateMutability": "nonpayable",
      "type": "function"
    },
    {
      "inputs": [
        {
          "internalType": "bytes4",
          "name": "interfaceId",
          "type": "bytes4"
        }
      ],
      "name": "supportsInterface",
      "outputs": [
        {
          "internalType": "bool",
          "name": "",
          "type": "bool"
        }
      ],
      "stateMutability": "view",
      "type": "function"
    },
    {
      "inputs": [],
      "name": "symbol",
      "outputs": [
        {
          "internalType": "string",
          "name": "",
          "type": "string"
        }
      ],
      "stateMutability": "view",
      "type": "function"
    },
    {
      "inputs": [],
      "name": "tokenCounter",
      "outputs": [
        {
          "internalType": "uint256",
          "name": "",
          "type": "uint256"
        }
      ],
      "stateMutability": "view",
      "type": "function"
    },
    {
      "inputs": [
        {
          "internalType": "uint256",
          "name": "tokenId",
          "type": "uint256"
        }
      ],
      "name": "tokenURI",
      "outputs": [
        {
          "internalType": "string",
          "name": "",
          "type": "string"
        }
      ],
      "stateMutability": "view",
      "type": "function"
    },
    {
      "inputs": [
        {
          "internalType": "address",
          "name": "from",
          "type": "address"
        },
        {
          "internalType": "address",
          "name": "to",
          "type": "address"
        },
        {
          "internalType": "uint256",
          "name": "tokenId",
          "type": "uint256"
        }
      ],
      "name": "transferFrom",
      "outputs": [],
      "stateMutability": "nonpayable",
      "type": "function"
    },
    {
      "inputs": [
        {
          "internalType": "address",
          "name": "newOwner",
          "type": "address"
        }
      ],
      "name": "transferOwnership",
      "outputs": [],
      "stateMutability": "nonpayable",
      "type": "function"
    },
    {
      "inputs": [
        {
          "internalType": "address",
          "name": "",
          "type": "address"
        },
        {
          "internalType": "uint256",
          "name": "",
          "type": "uint256"
        }
      ],
      "name": "userNFTs",
      "outputs": [
        {
          "internalType": "uint256",
          "name": "",
          "type": "uint256"
        }
      ],
      "stateMutability": "view",
      "type": "function"
    },
    {
      "stateMutability": "payable",
      "type": "receive"
    }
  ],
  "bytecode": "0x608060405234801561001057600080fd5b50336040518060400160405280600f81526020017f4e4654204d61726b6574706c61636500000000000000000000000000000000008152506040518060400160405280600781526020017f4e46546f6b656e00000000000000000000000000000000000000000000000000815250816000908161008d9190610445565b50806001908161009d9190610445565b505050600073ffffffffffffffffffffffffffffffffffffffff168173ffffffffffffffffffffffffffffffffffffffff16036101125760006040517f1e4fbdf70000000000000000000000000000000000000000000000000000000081526004016101099190610558565b60405180910390fd5b6101218161012f60201b60201c565b506000600881905550610573565b6000600760009054906101000a900473ffffffffffffffffffffffffffffffffffffffff16905081600760006101000a81548173ffffffffffffffffffffffffffffffffffffffff021916908373ffffffffffffffffffffffffffffffffffffffff1602179055508173ffffffffffffffffffffffffffffffffffffffff168173ffffffffffffffffffffffffffffffffffffffff167f8be0079c531659141344cd1fd0a4f28419497f9722a3daafe3b4186f6b6457e060405160405180910390a35050565b600081519050919050565b7f4e487b7100000000000000000000000000000000000000000000000000000000600052604160045260246000fd5b7f4e487b7100000000000000000000000000000000000000000000000000000000600052602260045260246000fd5b6000600282049050600182168061027657607f821691505b6020821081036102895761028861022f565b5b50919050565b60008190508160005260206000209050919050565b60006020601f8301049050919050565b600082821b905092915050565b6000600883026102f17fffffffffffffffffffffffffffffffffffffffffffffffffffffffffffffffff826102b4565b6102fb86836102b4565b95508019841693508086168417925050509392505050565b6000819050919050565b6000819050919050565b600061034261033d61033884610313565b61031d565b610313565b9050919050565b6000819050919050565b61035c83610327565b61037061036882610349565b8484546102c1565b825550505050565b600090565b610385610378565b610390818484610353565b505050565b5b818110156103b4576103a960008261037d565b600181019050610396565b5050565b601f8211156103f9576103ca8161028f565b6103d3846102a4565b810160208510156103e2578190505b6103f66103ee856102a4565b830182610395565b50505b505050565b600082821c905092915050565b600061041c600019846008026103fe565b1980831691505092915050565b6000610435838361040b565b9150826002028217905092915050565b61044e826101f5565b67ffffffffffffffff81111561046757610466610200565b5b610471825461025e565b61047c8282856103b8565b600060209050601f8311600181146104af576000841561049d578287015190505b6104a78582610429565b86555061050f565b601f1984166104bd8661028f565b60005b828110156104e5578489015182556001820191506020850194506020810190506104c0565b8683101561050257848901516104fe601f89168261040b565b8355505b6001600288020188555050505b505050505050565b600073ffffffffffffffffffffffffffffffffffffffff82169050919050565b600061054282610517565b9050919050565b61055281610537565b82525050565b600060208201905061056d6000830184610549565b92915050565b613577806105826000396000f3fe6080604052600436106101395760003560e01c80638da5cb5b116100ab578063c87b56dd1161006f578063c87b56dd1461042b578063d082e38114610468578063d51fe9cb14610493578063e985e9c5146104d0578063f2fde38b1461050d578063fb37e883146105365761013a565b80638da5cb5b1461036757806395d89b4114610392578063a22cb465146103bd578063b1c7b4df146103e6578063b88d4fde146104025761013a565b8063291c73c3116100fd578063291c73c31461023357806342842e0e1461027057806352de4ee5146102995780636352211e146102d657806370a0823114610313578063715018a6146103505761013a565b806301ffc9a71461013c57806306fdde0314610179578063081812fc146101a4578063095ea7b3146101e157806323b872dd1461020a5761013a565b5b005b34801561014857600080fd5b50610163600480360381019061015e91906125a8565b610573565b60405161017091906125f0565b60405180910390f35b34801561018557600080fd5b5061018e6105d4565b60405161019b919061269b565b60405180910390f35b3480156101b057600080fd5b506101cb60048036038101906101c691906126f3565b610666565b6040516101d89190612761565b60405180910390f35b3480156101ed57600080fd5b50610208600480360381019061020391906127a8565b610682565b005b34801561021657600080fd5b50610231600480360381019061022c91906127e8565b610698565b005b34801561023f57600080fd5b5061025a600480360381019061025591906127a8565b61079a565b604051610267919061284a565b60405180910390f35b34801561027c57600080fd5b50610297600480360381019061029291906127e8565b6107cb565b005b3480156102a557600080fd5b506102c060048036038101906102bb9190612865565b6107eb565b6040516102cd9190612950565b60405180910390f35b3480156102e257600080fd5b506102fd60048036038101906102f891906126f3565b610882565b60405161030a9190612761565b60405180910390f35b34801561031f57600080fd5b5061033a60048036038101906103359190612865565b610894565b604051610347919061284a565b60405180910390f35b34801561035c57600080fd5b5061036561094e565b005b34801561037357600080fd5b5061037c610962565b6040516103899190612761565b60405180910390f35b34801561039e57600080fd5b506103a761098c565b6040516103b4919061269b565b60405180910390f35b3480156103c957600080fd5b506103e460048036038101906103df919061299e565b610a1e565b005b61040060048036038101906103fb91906129de565b610a34565b005b34801561040e57600080fd5b5061042960048036038101906104249190612b53565b610e85565b005b34801561043757600080fd5b50610452600480360381019061044d91906126f3565b610eaa565b60405161045f919061269b565b60405180910390f35b34801561047457600080fd5b5061047d610fbd565b60405161048a919061284a565b60405180910390f35b34801561049f57600080fd5b506104ba60048036038101906104b591906126f3565b610fc3565b6040516104c79190612761565b60405180910390f35b3480156104dc57600080fd5b506104f760048036038101906104f29190612bd6565b610ff6565b60405161050491906125f0565b60405180910390f35b34801561051957600080fd5b50610534600480360381019061052f9190612865565b61108a565b005b34801561054257600080fd5b5061055d60048036038101906105589190612cb7565b611110565b60405161056a919061284a565b60405180910390f35b6000634906490660e01b7bffffffffffffffffffffffffffffffffffffffffffffffffffffffff1916827bffffffffffffffffffffffffffffffffffffffffffffffffffffffff191614806105cd57506105cc8261126c565b5b9050919050565b6060600080546105e390612d2f565b80601f016020809104026020016040519081016040528092919081815260200182805461060f90612d2f565b801561065c5780601f106106315761010080835404028352916020019161065c565b820191906000526020600020905b81548152906001019060200180831161063f57829003601f168201915b5050505050905090565b60006106718261134e565b5061067b826113d6565b9050919050565b610694828261068f611413565b61141b565b5050565b600073ffffffffffffffffffffffffffffffffffffffff168273ffffffffffffffffffffffffffffffffffffffff160361070a5760006040517f64a0ae920000000000000000000000000000000000000000000000000000000081526004016107019190612761565b60405180910390fd5b600061071e8383610719611413565b61142d565b90508373ffffffffffffffffffffffffffffffffffffffff168173ffffffffffffffffffffffffffffffffffffffff1614610794578382826040517f64283d7b00000000000000000000000000000000000000000000000000000000815260040161078b93929190612d60565b60405180910390fd5b50505050565b600a60205281600052604060002081815481106107b657600080fd5b90600052602060002001600091509150505481565b6107e683838360405180602001604052806000815250610e85565b505050565b6060600a60008373ffffffffffffffffffffffffffffffffffffffff1673ffffffffffffffffffffffffffffffffffffffff16815260200190815260200160002080548060200260200160405190810160405280929190818152602001828054801561087657602002820191906000526020600020905b815481526020019060010190808311610862575b50505050509050919050565b600061088d8261134e565b9050919050565b60008073ffffffffffffffffffffffffffffffffffffffff168273ffffffffffffffffffffffffffffffffffffffff16036109075760006040517f89c62b640000000000000000000000000000000000000000000000000000000081526004016108fe9190612761565b60405180910390fd5b600360008373ffffffffffffffffffffffffffffffffffffffff1673ffffffffffffffffffffffffffffffffffffffff168152602001908152602001600020549050919050565b610956611647565b61096060006116ce565b565b6000600760009054906101000a900473ffffffffffffffffffffffffffffffffffffffff16905090565b60606001805461099b90612d2f565b80601f01602080910402602001604051908101604052809291908181526020018280546109c790612d2f565b8015610a145780601f106109e957610100808354040283529160200191610a14565b820191906000526020600020905b8154815290600101906020018083116109f757829003601f168201915b5050505050905090565b610a30610a29611413565b8383611794565b5050565b60006009600084815260200190815260200160002060009054906101000a900473ffffffffffffffffffffffffffffffffffffffff169050610aad6040518060400160405280600a81526020017f53656e6465722069733a00000000000000000000000000000000000000000000815250848434611903565b81341015610af0576040517f08c379a0000000000000000000000000000000000000000000000000000000008152600401610ae790612de3565b60405180910390fd5b3373ffffffffffffffffffffffffffffffffffffffff168173ffffffffffffffffffffffffffffffffffffffff1603610b5e576040517f08c379a0000000000000000000000000000000000000000000000000000000008152600401610b5590612e75565b60405180910390fd5b60008173ffffffffffffffffffffffffffffffffffffffff1683604051610b8490612ec6565b60006040518083038185875af1925050503d8060008114610bc1576040519150601f19603f3d011682016040523d82523d6000602084013e610bc6565b606091505b5050905080610c0a576040517f08c379a0000000000000000000000000000000000000000000000000000000008152600401610c0190612f27565b60405180910390fd5b600a60003373ffffffffffffffffffffffffffffffffffffffff1673ffffffffffffffffffffffffffffffffffffffff1681526020019081526020016000208490806001815401808255809150506001900390600052602060002001600090919091909150556000600a60008473ffffffffffffffffffffffffffffffffffffffff1673ffffffffffffffffffffffffffffffffffffffff168152602001908152602001600020905060005b8180549050811015610de75785828281548110610cd657610cd5612f47565b5b906000526020600020015403610dda5760008190505b60018380549050610cfd9190612fa5565b811015610dad576000838281548110610d1957610d18612f47565b5b9060005260206000200154905083600183610d349190612fd9565b81548110610d4557610d44612f47565b5b9060005260206000200154848381548110610d6357610d62612f47565b5b90600052602060002001819055508084600184610d809190612fd9565b81548110610d9157610d90612f47565b5b9060005260206000200181905550508080600101915050610cec565b5081805480610dbf57610dbe61300d565b5b60019003818190600052602060002001600090559055610de7565b8080600101915050610cb6565b50610df38333876119a5565b336009600087815260200190815260200160002060006101000a81548173ffffffffffffffffffffffffffffffffffffffff021916908373ffffffffffffffffffffffffffffffffffffffff1602179055507f2c90d17034df1b01f14c997126c92ea584411988f3c178da225da19493998b088533604051610e7692919061303c565b60405180910390a15050505050565b610e90848484610698565b610ea4610e9b611413565b85858585611b12565b50505050565b6060610eb58261134e565b506000600660008481526020019081526020016000208054610ed690612d2f565b80601f0160208091040260200160405190810160405280929190818152602001828054610f0290612d2f565b8015610f4f5780601f10610f2457610100808354040283529160200191610f4f565b820191906000526020600020905b815481529060010190602001808311610f3257829003601f168201915b505050505090506000610f60611cc3565b90506000815103610f75578192505050610fb8565b600082511115610faa578082604051602001610f929291906130a1565b60405160208183030381529060405292505050610fb8565b610fb384611cda565b925050505b919050565b60085481565b60096020528060005260406000206000915054906101000a900473ffffffffffffffffffffffffffffffffffffffff1681565b6000600560008473ffffffffffffffffffffffffffffffffffffffff1673ffffffffffffffffffffffffffffffffffffffff16815260200190815260200160002060008373ffffffffffffffffffffffffffffffffffffffff1673ffffffffffffffffffffffffffffffffffffffff16815260200190815260200160002060009054906101000a900460ff16905092915050565b611092611647565b600073ffffffffffffffffffffffffffffffffffffffff168173ffffffffffffffffffffffffffffffffffffffff16036111045760006040517f1e4fbdf70000000000000000000000000000000000000000000000000000000081526004016110fb9190612761565b60405180910390fd5b61110d816116ce565b50565b60008033905061112281600854611d43565b61112e60085484611d61565b3360096000600854815260200190815260200160002060006101000a81548173ffffffffffffffffffffffffffffffffffffffff021916908373ffffffffffffffffffffffffffffffffffffffff16021790555060086000815480929190611195906130c5565b91905055507f978d64222b11fab79cfb53f141e1c38c8765824e6d6653f36c819d1eca57ad9160016008546111ca9190612fa5565b336040516111d992919061303c565b60405180910390a1600a60008273ffffffffffffffffffffffffffffffffffffffff1673ffffffffffffffffffffffffffffffffffffffff168152602001908152602001600020600160085461122f9190612fa5565b908060018154018082558091505060019003906000526020600020016000909190919091505560016008546112649190612fa5565b915050919050565b60007f80ac58cd000000000000000000000000000000000000000000000000000000007bffffffffffffffffffffffffffffffffffffffffffffffffffffffff1916827bffffffffffffffffffffffffffffffffffffffffffffffffffffffff1916148061133757507f5b5e139f000000000000000000000000000000000000000000000000000000007bffffffffffffffffffffffffffffffffffffffffffffffffffffffff1916827bffffffffffffffffffffffffffffffffffffffffffffffffffffffff1916145b80611347575061134682611dbd565b5b9050919050565b60008061135a83611e27565b9050600073ffffffffffffffffffffffffffffffffffffffff168173ffffffffffffffffffffffffffffffffffffffff16036113cd57826040517f7e2732890000000000000000000000000000000000000000000000000000000081526004016113c4919061284a565b60405180910390fd5b80915050919050565b60006004600083815260200190815260200160002060009054906101000a900473ffffffffffffffffffffffffffffffffffffffff169050919050565b600033905090565b6114288383836001611e64565b505050565b60008061143984611e27565b9050600073ffffffffffffffffffffffffffffffffffffffff168373ffffffffffffffffffffffffffffffffffffffff161461147b5761147a818486612029565b5b600073ffffffffffffffffffffffffffffffffffffffff168173ffffffffffffffffffffffffffffffffffffffff161461150c576114bd600085600080611e64565b6001600360008373ffffffffffffffffffffffffffffffffffffffff1673ffffffffffffffffffffffffffffffffffffffff168152602001908152602001600020600082825403925050819055505b600073ffffffffffffffffffffffffffffffffffffffff168573ffffffffffffffffffffffffffffffffffffffff161461158f576001600360008773ffffffffffffffffffffffffffffffffffffffff1673ffffffffffffffffffffffffffffffffffffffff168152602001908152602001600020600082825401925050819055505b846002600086815260200190815260200160002060006101000a81548173ffffffffffffffffffffffffffffffffffffffff021916908373ffffffffffffffffffffffffffffffffffffffff160217905550838573ffffffffffffffffffffffffffffffffffffffff168273ffffffffffffffffffffffffffffffffffffffff167fddf252ad1be2c89b69c2b068fc378daa952ba7f163c4a11628f55a4df523b3ef60405160405180910390a4809150509392505050565b61164f611413565b73ffffffffffffffffffffffffffffffffffffffff1661166d610962565b73ffffffffffffffffffffffffffffffffffffffff16146116cc57611690611413565b6040517f118cdaa70000000000000000000000000000000000000000000000000000000081526004016116c39190612761565b60405180910390fd5b565b6000600760009054906101000a900473ffffffffffffffffffffffffffffffffffffffff16905081600760006101000a81548173ffffffffffffffffffffffffffffffffffffffff021916908373ffffffffffffffffffffffffffffffffffffffff1602179055508173ffffffffffffffffffffffffffffffffffffffff168173ffffffffffffffffffffffffffffffffffffffff167f8be0079c531659141344cd1fd0a4f28419497f9722a3daafe3b4186f6b6457e060405160405180910390a35050565b600073ffffffffffffffffffffffffffffffffffffffff168273ffffffffffffffffffffffffffffffffffffffff160361180557816040517f5b08ba180000000000000000000000000000000000000000000000000000000081526004016117fc9190612761565b60405180910390fd5b80600560008573ffffffffffffffffffffffffffffffffffffffff1673ffffffffffffffffffffffffffffffffffffffff16815260200190815260200160002060008473ffffffffffffffffffffffffffffffffffffffff1673ffffffffffffffffffffffffffffffffffffffff16815260200190815260200160002060006101000a81548160ff0219169083151502179055508173ffffffffffffffffffffffffffffffffffffffff168373ffffffffffffffffffffffffffffffffffffffff167f17307eab39ab6107e8899845ad3d59bd9653f200f220920489ca2b5937696c31836040516118f691906125f0565b60405180910390a3505050565b61199f8484848460405160240161191d949392919061310d565b6040516020818303038152906040527fa7a87853000000000000000000000000000000000000000000000000000000007bffffffffffffffffffffffffffffffffffffffffffffffffffffffff19166020820180517bffffffffffffffffffffffffffffffffffffffffffffffffffffffff83818316178352505050506120ed565b50505050565b600073ffffffffffffffffffffffffffffffffffffffff168273ffffffffffffffffffffffffffffffffffffffff1603611a175760006040517f64a0ae92000000000000000000000000000000000000000000000000000000008152600401611a0e9190612761565b60405180910390fd5b6000611a258383600061142d565b9050600073ffffffffffffffffffffffffffffffffffffffff168173ffffffffffffffffffffffffffffffffffffffff1603611a9857816040517f7e273289000000000000000000000000000000000000000000000000000000008152600401611a8f919061284a565b60405180910390fd5b8373ffffffffffffffffffffffffffffffffffffffff168173ffffffffffffffffffffffffffffffffffffffff1614611b0c578382826040517f64283d7b000000000000000000000000000000000000000000000000000000008152600401611b0393929190612d60565b60405180910390fd5b50505050565b60008373ffffffffffffffffffffffffffffffffffffffff163b1115611cbc578273ffffffffffffffffffffffffffffffffffffffff1663150b7a02868685856040518563ffffffff1660e01b8152600401611b7194939291906131ae565b6020604051808303816000875af1925050508015611bad57506040513d601f19601f82011682018060405250810190611baa919061320f565b60015b611c31573d8060008114611bdd576040519150601f19603f3d011682016040523d82523d6000602084013e611be2565b606091505b506000815103611c2957836040517f64a0ae92000000000000000000000000000000000000000000000000000000008152600401611c209190612761565b60405180910390fd5b805181602001fd5b63150b7a0260e01b7bffffffffffffffffffffffffffffffffffffffffffffffffffffffff1916817bffffffffffffffffffffffffffffffffffffffffffffffffffffffff191614611cba57836040517f64a0ae92000000000000000000000000000000000000000000000000000000008152600401611cb19190612761565b60405180910390fd5b505b5050505050565b606060405180602001604052806000815250905090565b6060611ce58261134e565b506000611cf0611cc3565b90506000815111611d105760405180602001604052806000815250611d3b565b80611d1a84612107565b604051602001611d2b9291906130a1565b6040516020818303038152906040525b915050919050565b611d5d8282604051806020016040528060008152506121d5565b5050565b80600660008481526020019081526020016000209081611d8191906133e8565b507ff8e1a15aba9398e019f0b49df1a4fde98ee17ae345cb5f6b5e2c27f5033e8ce782604051611db1919061284a565b60405180910390a15050565b60007f01ffc9a7000000000000000000000000000000000000000000000000000000007bffffffffffffffffffffffffffffffffffffffffffffffffffffffff1916827bffffffffffffffffffffffffffffffffffffffffffffffffffffffff1916149050919050565b60006002600083815260200190815260200160002060009054906101000a900473ffffffffffffffffffffffffffffffffffffffff169050919050565b8080611e9d5750600073ffffffffffffffffffffffffffffffffffffffff168273ffffffffffffffffffffffffffffffffffffffff1614155b15611fd1576000611ead8461134e565b9050600073ffffffffffffffffffffffffffffffffffffffff168373ffffffffffffffffffffffffffffffffffffffff1614158015611f1857508273ffffffffffffffffffffffffffffffffffffffff168173ffffffffffffffffffffffffffffffffffffffff1614155b8015611f2b5750611f298184610ff6565b155b15611f6d57826040517fa9fbf51f000000000000000000000000000000000000000000000000000000008152600401611f649190612761565b60405180910390fd5b8115611fcf57838573ffffffffffffffffffffffffffffffffffffffff168273ffffffffffffffffffffffffffffffffffffffff167f8c5be1e5ebec7d5bd14f71427d1e84f3dd0314c0f7b2291e5b200ac8c7c3b92560405160405180910390a45b505b836004600085815260200190815260200160002060006101000a81548173ffffffffffffffffffffffffffffffffffffffff021916908373ffffffffffffffffffffffffffffffffffffffff16021790555050505050565b6120348383836121f9565b6120e857600073ffffffffffffffffffffffffffffffffffffffff168373ffffffffffffffffffffffffffffffffffffffff16036120a957806040517f7e2732890000000000000000000000000000000000000000000000000000000081526004016120a0919061284a565b60405180910390fd5b81816040517f177e802f0000000000000000000000000000000000000000000000000000000081526004016120df9291906134ba565b60405180910390fd5b505050565b612104816120fc6122ba6122db565b63ffffffff16565b50565b606060006001612116846122e6565b01905060008167ffffffffffffffff81111561213557612134612a28565b5b6040519080825280601f01601f1916602001820160405280156121675781602001600182028036833780820191505090505b509050600082602001820190505b6001156121ca578080600190039150507f3031323334353637383961626364656600000000000000000000000000000000600a86061a8153600a85816121be576121bd6134e3565b5b04945060008503612175575b819350505050919050565b6121df8383612439565b6121f46121ea611413565b6000858585611b12565b505050565b60008073ffffffffffffffffffffffffffffffffffffffff168373ffffffffffffffffffffffffffffffffffffffff16141580156122b157508273ffffffffffffffffffffffffffffffffffffffff168473ffffffffffffffffffffffffffffffffffffffff16148061227257506122718484610ff6565b5b806122b057508273ffffffffffffffffffffffffffffffffffffffff16612298836113d6565b73ffffffffffffffffffffffffffffffffffffffff16145b5b90509392505050565b60006a636f6e736f6c652e6c6f679050600080835160208501845afa505050565b612532819050919050565b600080600090507a184f03e93ff9f4daa797ed6e38ed64bf6a1f0100000000000000008310612344577a184f03e93ff9f4daa797ed6e38ed64bf6a1f010000000000000000838161233a576123396134e3565b5b0492506040810190505b6d04ee2d6d415b85acef81000000008310612381576d04ee2d6d415b85acef81000000008381612377576123766134e3565b5b0492506020810190505b662386f26fc1000083106123b057662386f26fc1000083816123a6576123a56134e3565b5b0492506010810190505b6305f5e10083106123d9576305f5e10083816123cf576123ce6134e3565b5b0492506008810190505b61271083106123fe5761271083816123f4576123f36134e3565b5b0492506004810190505b606483106124215760648381612417576124166134e3565b5b0492506002810190505b600a8310612430576001810190505b80915050919050565b600073ffffffffffffffffffffffffffffffffffffffff168273ffffffffffffffffffffffffffffffffffffffff16036124ab5760006040517f64a0ae920000000000000000000000000000000000000000000000000000000081526004016124a29190612761565b60405180910390fd5b60006124b98383600061142d565b9050600073ffffffffffffffffffffffffffffffffffffffff168173ffffffffffffffffffffffffffffffffffffffff161461252d5760006040517f73c6ac6e0000000000000000000000000000000000000000000000000000000081526004016125249190612761565b60405180910390fd5b505050565b61253a613512565b565b6000604051905090565b600080fd5b600080fd5b60007fffffffff0000000000000000000000000000000000000000000000000000000082169050919050565b61258581612550565b811461259057600080fd5b50565b6000813590506125a28161257c565b92915050565b6000602082840312156125be576125bd612546565b5b60006125cc84828501612593565b91505092915050565b60008115159050919050565b6125ea816125d5565b82525050565b600060208201905061260560008301846125e1565b92915050565b600081519050919050565b600082825260208201905092915050565b60005b8381101561264557808201518184015260208101905061262a565b60008484015250505050565b6000601f19601f8301169050919050565b600061266d8261260b565b6126778185612616565b9350612687818560208601612627565b61269081612651565b840191505092915050565b600060208201905081810360008301526126b58184612662565b905092915050565b6000819050919050565b6126d0816126bd565b81146126db57600080fd5b50565b6000813590506126ed816126c7565b92915050565b60006020828403121561270957612708612546565b5b6000612717848285016126de565b91505092915050565b600073ffffffffffffffffffffffffffffffffffffffff82169050919050565b600061274b82612720565b9050919050565b61275b81612740565b82525050565b60006020820190506127766000830184612752565b92915050565b61278581612740565b811461279057600080fd5b50565b6000813590506127a28161277c565b92915050565b600080604083850312156127bf576127be612546565b5b60006127cd85828601612793565b92505060206127de858286016126de565b9150509250929050565b60008060006060848603121561280157612800612546565b5b600061280f86828701612793565b935050602061282086828701612793565b9250506040612831868287016126de565b9150509250925092565b612844816126bd565b82525050565b600060208201905061285f600083018461283b565b92915050565b60006020828403121561287b5761287a612546565b5b600061288984828501612793565b91505092915050565b600081519050919050565b600082825260208201905092915050565b6000819050602082019050919050565b6128c7816126bd565b82525050565b60006128d983836128be565b60208301905092915050565b6000602082019050919050565b60006128fd82612892565b612907818561289d565b9350612912836128ae565b8060005b8381101561294357815161292a88826128cd565b9750612935836128e5565b925050600181019050612916565b5085935050505092915050565b6000602082019050818103600083015261296a81846128f2565b905092915050565b61297b816125d5565b811461298657600080fd5b50565b60008135905061299881612972565b92915050565b600080604083850312156129b5576129b4612546565b5b60006129c385828601612793565b92505060206129d485828601612989565b9150509250929050565b600080604083850312156129f5576129f4612546565b5b6000612a03858286016126de565b9250506020612a14858286016126de565b9150509250929050565b600080fd5b600080fd5b7f4e487b7100000000000000000000000000000000000000000000000000000000600052604160045260246000fd5b612a6082612651565b810181811067ffffffffffffffff82111715612a7f57612a7e612a28565b5b80604052505050565b6000612a9261253c565b9050612a9e8282612a57565b919050565b600067ffffffffffffffff821115612abe57612abd612a28565b5b612ac782612651565b9050602081019050919050565b82818337600083830152505050565b6000612af6612af184612aa3565b612a88565b905082815260208101848484011115612b1257612b11612a23565b5b612b1d848285612ad4565b509392505050565b600082601f830112612b3a57612b39612a1e565b5b8135612b4a848260208601612ae3565b91505092915050565b60008060008060808587031215612b6d57612b6c612546565b5b6000612b7b87828801612793565b9450506020612b8c87828801612793565b9350506040612b9d878288016126de565b925050606085013567ffffffffffffffff811115612bbe57612bbd61254b565b5b612bca87828801612b25565b91505092959194509250565b60008060408385031215612bed57612bec612546565b5b6000612bfb85828601612793565b9250506020612c0c85828601612793565b9150509250929050565b600067ffffffffffffffff821115612c3157612c30612a28565b5b612c3a82612651565b9050602081019050919050565b6000612c5a612c5584612c16565b612a88565b905082815260208101848484011115612c7657612c75612a23565b5b612c81848285612ad4565b509392505050565b600082601f830112612c9e57612c9d612a1e565b5b8135612cae848260208601612c47565b91505092915050565b600060208284031215612ccd57612ccc612546565b5b600082013567ffffffffffffffff811115612ceb57612cea61254b565b5b612cf784828501612c89565b91505092915050565b7f4e487b7100000000000000000000000000000000000000000000000000000000600052602260045260246000fd5b60006002820490506001821680612d4757607f821691505b602082108103612d5a57612d59612d00565b5b50919050565b6000606082019050612d756000830186612752565b612d82602083018561283b565b612d8f6040830184612752565b949350505050565b7f4c6f772042616c616e6365000000000000000000000000000000000000000000600082015250565b6000612dcd600b83612616565b9150612dd882612d97565b602082019050919050565b60006020820190508181036000830152612dfc81612dc0565b9050919050565b7f596f752061726520616c726561647920746865206f776e6572206f662074686960008201527f73204e4654000000000000000000000000000000000000000000000000000000602082015250565b6000612e5f602583612616565b9150612e6a82612e03565b604082019050919050565b60006020820190508181036000830152612e8e81612e52565b9050919050565b600081905092915050565b50565b6000612eb0600083612e95565b9150612ebb82612ea0565b600082019050919050565b6000612ed182612ea3565b9150819050919050565b7f4661696c656420746f2073656e64204574686572000000000000000000000000600082015250565b6000612f11601483612616565b9150612f1c82612edb565b602082019050919050565b60006020820190508181036000830152612f4081612f04565b9050919050565b7f4e487b7100000000000000000000000000000000000000000000000000000000600052603260045260246000fd5b7f4e487b7100000000000000000000000000000000000000000000000000000000600052601160045260246000fd5b6000612fb0826126bd565b9150612fbb836126bd565b9250828203905081811115612fd357612fd2612f76565b5b92915050565b6000612fe4826126bd565b9150612fef836126bd565b925082820190508082111561300757613006612f76565b5b92915050565b7f4e487b7100000000000000000000000000000000000000000000000000000000600052603160045260246000fd5b6000604082019050613051600083018561283b565b61305e6020830184612752565b9392505050565b600081905092915050565b600061307b8261260b565b6130858185613065565b9350613095818560208601612627565b80840191505092915050565b60006130ad8285613070565b91506130b98284613070565b91508190509392505050565b60006130d0826126bd565b91507fffffffffffffffffffffffffffffffffffffffffffffffffffffffffffffffff820361310257613101612f76565b5b600182019050919050565b600060808201905081810360008301526131278187612662565b9050613136602083018661283b565b613143604083018561283b565b613150606083018461283b565b95945050505050565b600081519050919050565b600082825260208201905092915050565b600061318082613159565b61318a8185613164565b935061319a818560208601612627565b6131a381612651565b840191505092915050565b60006080820190506131c36000830187612752565b6131d06020830186612752565b6131dd604083018561283b565b81810360608301526131ef8184613175565b905095945050505050565b6000815190506132098161257c565b92915050565b60006020828403121561322557613224612546565b5b6000613233848285016131fa565b91505092915050565b60008190508160005260206000209050919050565b60006020601f8301049050919050565b600082821b905092915050565b60006008830261329e7fffffffffffffffffffffffffffffffffffffffffffffffffffffffffffffffff82613261565b6132a88683613261565b95508019841693508086168417925050509392505050565b6000819050919050565b60006132e56132e06132db846126bd565b6132c0565b6126bd565b9050919050565b6000819050919050565b6132ff836132ca565b61331361330b826132ec565b84845461326e565b825550505050565b600090565b61332861331b565b6133338184846132f6565b505050565b5b818110156133575761334c600082613320565b600181019050613339565b5050565b601f82111561339c5761336d8161323c565b61337684613251565b81016020851015613385578190505b61339961339185613251565b830182613338565b50505b505050565b600082821c905092915050565b60006133bf600019846008026133a1565b1980831691505092915050565b60006133d883836133ae565b9150826002028217905092915050565b6133f18261260b565b67ffffffffffffffff81111561340a57613409612a28565b5b6134148254612d2f565b61341f82828561335b565b600060209050601f8311600181146134525760008415613440578287015190505b61344a85826133cc565b8655506134b2565b601f1984166134608661323c565b60005b8281101561348857848901518255600182019150602085019450602081019050613463565b868310156134a557848901516134a1601f8916826133ae565b8355505b6001600288020188555050505b505050505050565b60006040820190506134cf6000830185612752565b6134dc602083018461283b565b9392505050565b7f4e487b7100000000000000000000000000000000000000000000000000000000600052601260045260246000fd5b7f4e487b7100000000000000000000000000000000000000000000000000000000600052605160045260246000fdfea264697066735822122044e5e6332def775b1e76aa2db8ae34acd6c00dd0b141226a1f374a6d2f9fd89664736f6c634300081c0033",
  "linkReferences": {},
  "deployedLinkReferences": {}
}